:100000003DC0000058C0000056C0000054C00000B1
:100010000C949B1D50C000004EC000004CC000005E
:100020004AC0000048C0000046C0000044C00000B4
:1000300042C000000C94721D3EC000003CC0000095
:100040003AC0000038C0000036C0000034C00000D4
:1000500032C0000030C000002EC000002CC00000E4
:100060002AC0000028C0000026C0000024C00000F4
:1000700022C0000020C000001EC0000011241FBECE
:10008000CFEFD0E1DEBFCDBF11E0A0E0B1E0E8E509
:10009000F1E402C005900D92A431B107D9F711E047
:1000A000A4E1B1E001C01D92A632B107E1F70E94C0
:1000B000231D0C94AA20A4CFDF93CF93CDB7DEB736
:1000C0002B970FB6F894DEBF0FBECDBF9F838E83F4
:1000D0008E819F818D30910538F481E090E09C8382
:1000E0008B838E818D831DC08E819F812CE030E0BB
:1000F000B9010E94911FCB019C838B838CE08D837F
:100100008E819F812CE030E0B9010E94911F009701
:1001100041F08E819F812CE030E0B9010E94911F57
:10012000CBDF1A82198253C080911601882309F00F
:1001300056C0E6E4F0E0108247E450E05987488773
:100140008D81282F30E080E29EE4FC012E9FC001CB
:100150002F9F900D3E9F900D11249B878A874A8583
:100160005B85552334F48A859B8581509C4F9B8702
:100170008A878A859B85892F990F990B8595859507
:100180008150E885F9858083A5E4B0E0E5E4F0E0FE
:10019000808185608C93E5E3F0E08081882F90E09A
:1001A000827090700097B9F3A5E4B0E0E5E4F0E068
:1001B0008081887F8C93A5E3B0E0E5E3F0E0808167
:1001C00082608C9389819A8101969A83898329819F
:1001D0003A818B819C812817390708F4A5CF2B968B
:1001E0000FB6F894DEBF0FBECDBFCF91DF9108955B
:1001F000DF93CF9300D00F92CDB7DEB789836A83A8
:1002000089818C3110F01B825CC18A818A3010F0A8
:100210001B8257C189816A8140E00E941D1A898131
:100220008F5F6A8140E00E941D1A89818E5F6A811A
:1002300040E00E941D1A89818D5F6A8140E00E9422
:100240001D1A89818C5F6A8140E00E941D1A8A8193
:10025000982F9F5F8981692F40E00E941D1A898134
:10026000282F2F5F8A81982F9F5F822F692F40E070
:100270000E941D1A8981282F2E5F8A81982F9F5FE7
:10028000822F692F40E00E941D1A8981282F2D5F3F
:100290008A81982F9F5F822F692F40E00E941D1A4C
:1002A0008981282F2C5F8A81982F9F5F822F692F49
:1002B00040E00E941D1A8A81982F9E5F8981692FD4
:1002C00040E00E941D1A8981282F2F5F8A81982F74
:1002D0009E5F822F692F40E00E941D1A8981282F7E
:1002E0002E5F8A81982F9E5F822F692F40E00E94A7
:1002F0001D1A8981282F2D5F8A81982F9E5F822F5A
:10030000692F40E00E941D1A8981282F2C5F8A8165
:10031000982F9E5F822F692F40E00E941D1A8A81CC
:10032000982F9D5F8981692F40E00E941D1A898165
:10033000282F2F5F8A81982F9D5F822F692F40E0A1
:100340000E941D1A8981282F2E5F8A81982F9D5F18
:10035000822F692F40E00E941D1A8981282F2D5F6E
:100360008A81982F9D5F822F692F40E00E941D1A7D
:100370008981282F2C5F8A81982F9D5F822F692F7A
:1003800040E00E941D1A8A81982F9C5F8981692F05
:1003900040E00E941D1A8981282F2F5F8A81982FA3
:1003A0009C5F822F692F40E00E941D1A8981282FAF
:1003B0002E5F8A81982F9C5F822F692F40E00E94D8
:1003C0001D1A8981282F2D5F8A81982F9C5F822F8B
:1003D000692F40E00E941D1A8981282F2C5F8A8195
:1003E000982F9C5F822F692F40E00E941D1A8A81FE
:1003F000982F9B5F8981692F40E00E941D1A898197
:10040000282F2F5F8A81982F9B5F822F692F40E0D2
:100410000E941D1A8981282F2E5F8A81982F9B5F49
:10042000822F692F40E00E941D1A8981282F2D5F9D
:100430008A81982F9B5F822F692F40E00E941D1AAE
:100440008981282F2C5F8A81982F9B5F822F692FAB
:1004500040E00E941D1A8A81982F9A5F8981692F36
:1004600040E00E941D1A8981282F2F5F8A81982FD2
:100470009A5F822F692F40E00E941D1A8981282FE0
:100480002E5F8A81982F9A5F822F692F40E00E9409
:100490001D1A8981282F2D5F8A81982F9A5F822FBC
:1004A000692F40E00E941D1A8981282F2C5F8A81C4
:1004B000982F9A5F822F692F40E00E941D1A81E0D9
:1004C0008B838B810F900F900F90CF91DF910895C8
:1004D000DF93CF9300D0CDB7DEB780E092E00E94EB
:1004E000A51F9093180180931701A4E2B0E0E4E205
:1004F000F0E0808183608C93A7E2B0E0E7E2F0E077
:1005000080818C638C93AAE2B0E0EAE2F0E0808123
:100510008C6F8C931A82198212C02091170130912E
:10052000180189819A81880F991FF901E80FF91F35
:100530001182108289819A8101969A8389838981A7
:100540009A8122E08030920740F30F900F90CF9174
:10055000DF910895DF93CF9300D00F92CDB7DEB730
:100560009B838A8319828A819B810097D1F103C082
:1005700089818F5F89838981282F30E08A819B81DF
:10058000FC01E20FF31F8081882391F78981863077
:1005900040F5209111018A819B8160E040E00E943A
:1005A000391C8981282F30E0C901880F991F820FDB
:1005B000931F880F991F9091110162E0492F0E94AB
:1005C0001D1A8981282F30E0C901880F991F820FD9
:1005D000931F880F991F9091110164E0492F0E9489
:1005E0001D1A0F900F900F90CF91DF910895DF9318
:1005F000CF93CDB7DEB727970FB6F894DEBF0FBE07
:10060000CDBF89836A834B832C838A818C3118F018
:100610001F820C94131A8B818A3018F01F820C945D
:10062000131A8981282F30E03E832D838D819E818E
:100630008934910511F40C948A112D813E812A345C
:1006400031050CF0B2C08D819E818833910509F48B
:10065000C8C52D813E81293331050CF052C08D81F2
:100660009E818333910509F4EEC22D813E812433AE
:1006700031056CF58D819E818033910509F43DC172
:100680002D813E8121333105A4F48D819E818532F7
:10069000910509F4A9C72D813E812D32310509F458
:1006A0001BC78D819E818032910509F4ECC60C94A4
:1006B000121A2D813E812133310509F4D8C18D8173
:1006C0009E818233910509F432C20C94121A2D8155
:1006D0003E812533310509F4E6C38D819E81853342
:1006E00091050CF447C32D813E812633310509F471
:1006F0006EC48D819E818733910509F40CC50C94DD
:10070000121A2D813E812434310511F40C94800E8F
:100710008D819E818534910554F52D813E81213452
:10072000310511F40C949D0C8D819E8182349105CC
:1007300074F42D813E812933310509F4F9C58D8189
:100740009E818A33910509F4A9C60C94121A2D8151
:100750003E812234310511F40C944A0D8D819E8125
:100760008334910511F40C94070E0C94121A2D8108
:100770003E812634310511F40C94D40F8D819E8175
:100780008634910514F40C94270F2D813E81273473
:10079000310511F40C943F108D819E8188349105B0
:1007A00011F40C94E4100C94121A2D813E8123351F
:1007B000310511F40C9464168D819E818435910568
:1007C0000CF048C02D813E812E34310511F40C947B
:1007D00096138D819E818F349105F4F42D813E8195
:1007E0002B34310511F40C942F128D819E818B34A2
:1007F000910514F40C94DA112D813E812C343105CD
:1008000011F40C94A5128D819E818D34910511F403
:100810000C9402130C94121A2D813E81203531055F
:1008200011F40C94B3148D819E818035910514F4DC
:100830000C942A142D813E812135310511F40C943C
:1008400029158D819E818235910511F40C94D01566
:100850000C94121A2D813E812835310511F40C9427
:10086000BC188D819E8189359105F4F42D813E81DE
:100870002535310511F40C9444178D819E81853501
:10088000910514F40C94E9162D813E81263531052D
:1008900011F40C94C7178D819E818735910511F451
:1008A0000C9439180C94121A2D813E812136310591
:1008B00009F420C78D819E818236910584F42D81B3
:1008C0003E812935310511F40C9431198D819E81B9
:1008D0008A35910511F40C9495190C94121A2D81F6
:1008E0003E812037310509F4AEC78D819E8188375E
:1008F000910509F40FC60C94121A8A816B8178DC79
:100900008A818F5F6B814C810E941D1A8A818E5F64
:100910006B814C810E941D1A8A818D5F6B814C8195
:100920000E941D1A8B81982F9F5F8A81692F4C81AD
:100930000E941D1A8A81282F2C5F8B81982F9F5F20
:10094000822F692F4C810E941D1A8B81982F9E5FE8
:100950008A81692F4C810E941D1A8A81282F2D5F60
:100960008B81982F9E5F822F692F4C810E941D1AC8
:100970008A81282F2C5F8B81982F9E5F822F692F71
:100980004C810E941D1A8B81982F9D5F8A81692F4F
:100990004C810E941D1A8A81282F2E5F8B81982FEF
:1009A0009D5F822F692F4C810E941D1A8A81282FFA
:1009B0002C5F8B81982F9D5F822F692F4C810E9425
:1009C0001D1A8B81982F9C5F8A81692F4C810E9410
:1009D0001D1A8A81282F2F5F8B81982F9C5F822F71
:1009E000692F4C810E941D1A8A81282F2C5F8B81D0
:1009F000982F9C5F822F692F4C810E941D1A8B813A
:100A0000982F9B5F8A81692F4C810E941D1A8A81D1
:100A1000282F2C5F8B81982F9B5F822F692F4C8111
:100A20000E941D1A8A81282F2F5F8B81982F9A5F31
:100A3000822F692F4C810E941D1A8A81282F2E5FD8
:100A40008B81982F9A5F822F692F4C810E941D1AEB
:100A50008A81282F2D5F8B81982F9A5F822F692F93
:100A60004C810E941D1A91E09F830C94131A8A8175
:100A70006B81BEDB8A818E5F6B814C810E941D1A67
:100A80008A818D5F6B814C810E941D1A8A81282F7B
:100A90002F5F8B81982F9F5F822F692F4C810E943F
:100AA0001D1A8A81282F2D5F8B81982F9F5F822F9F
:100AB000692F4C810E941D1A8A81282F2D5F8B81FE
:100AC000982F9E5F822F692F4C810E941D1A8A8168
:100AD000282F2D5F8B81982F9D5F822F692F4C814E
:100AE0000E941D1A8A81282F2D5F8B81982F9C5F71
:100AF000822F692F4C810E941D1A8A81282F2D5F19
:100B00008B81982F9B5F822F692F4C810E941D1A29
:100B10008A81282F2D5F8B81982F9A5F822F692FD2
:100B20004C810E941D1A21E02F830C94131A8A8194
:100B30006B815EDB8A818F5F6B814C810E941D1A05
:100B40008A818E5F6B814C810E941D1A8A818D5F24
:100B50006B814C810E941D1A8B81982F9F5F8A8127
:100B6000692F4C810E941D1A8A81282F2C5F8B814E
:100B7000982F9F5F822F692F4C810E941D1A8A81B6
:100B8000282F2C5F8B81982F9E5F822F692F4C819D
:100B90000E941D1A8A81282F2C5F8B81982F9D5FC0
:100BA000822F692F4C810E941D1A8A81282F2D5F68
:100BB0008B81982F9C5F822F692F4C810E941D1A78
:100BC0008A81282F2E5F8B81982F9B5F822F692F20
:100BD0004C810E941D1A8B81982F9A5F8A81692F00
:100BE0004C810E941D1A8A81282F2F5F8B81982F9C
:100BF0009A5F822F692F4C810E941D1A8A81282FAB
:100C00002E5F8B81982F9A5F822F692F4C810E94D3
:100C10001D1A8A81282F2D5F8B81982F9A5F822F32
:100C2000692F4C810E941D1A8A81282F2C5F8B818D
:100C3000982F9A5F822F692F4C810E941D1A31E0F4
:100C40003F830C94131A8A816B81D2DA8A818F5F79
:100C50006B814C810E941D1A8A818E5F6B814C8151
:100C60000E941D1A8A818D5F6B814C810E941D1A22
:100C70008B81982F9F5F8A81692F4C810E941D1A5A
:100C80008A81282F2C5F8B81982F9F5F822F692F5D
:100C90004C810E941D1A8A81282F2C5F8B81982FEE
:100CA0009E5F822F692F4C810E941D1A8A81282FF6
:100CB0002F5F8B81982F9D5F822F692F4C810E941F
:100CC0001D1A8A81282F2E5F8B81982F9D5F822F7E
:100CD000692F4C810E941D1A8A81282F2D5F8B81DC
:100CE000982F9D5F822F692F4C810E941D1A8A8147
:100CF000282F2C5F8B81982F9C5F822F692F4C812E
:100D00000E941D1A8B81982F9B5F8A81692F4C81CD
:100D10000E941D1A8A81282F2C5F8B81982F9B5F40
:100D2000822F692F4C810E941D1A8A81282F2F5FE4
:100D30008B81982F9A5F822F692F4C810E941D1AF8
:100D40008A81282F2E5F8B81982F9A5F822F692F9F
:100D50004C810E941D1A8A81282F2D5F8B81982F2C
:100D60009A5F822F692F4C810E941D1A81E08F8328
:100D70000C94131A8A816B813BDA8A818C5F6B81B8
:100D80004C810E941D1A8A81282F2D5F8B81982FFC
:100D90009F5F822F692F4C810E941D1A8A81282F04
:100DA0002C5F8B81982F9F5F822F692F4C810E942F
:100DB0001D1A8A81282F2E5F8B81982F9E5F822F8C
:100DC000692F4C810E941D1A8A81282F2C5F8B81EC
:100DD000982F9E5F822F692F4C810E941D1A8A8155
:100DE000282F2F5F8B81982F9D5F822F692F4C8139
:100DF0000E941D1A8A81282F2C5F8B81982F9D5F5E
:100E0000822F692F4C810E941D1A8B81982F9C5F25
:100E10008A81692F4C810E941D1A8A81282F2F5F99
:100E20008B81982F9C5F822F692F4C810E941D1A05
:100E30008A81282F2E5F8B81982F9C5F822F692FAC
:100E40004C810E941D1A8A81282F2D5F8B81982F3B
:100E50009C5F822F692F4C810E941D1A8A81282F46
:100E60002C5F8B81982F9C5F822F692F4C810E9471
:100E70001D1A8A81282F2C5F8B81982F9B5F822FD0
:100E8000692F4C810E941D1A8A81282F2C5F8B812B
:100E9000982F9A5F822F692F4C810E941D1A91E032
:100EA0009F830C94131A8A816B81A2D98A816B81EA
:100EB0004C810E941D1A8A818F5F6B814C810E9438
:100EC0001D1A8A818E5F6B814C810E941D1A8A8156
:100ED0008D5F6B814C810E941D1A8A818C5F6B81B2
:100EE0004C810E941D1A8B81982F9F5F8A81692FE8
:100EF0004C810E941D1A8B81982F9E5F8A81692FD9
:100F00004C810E941D1A8A81282F2F5F8B81982F78
:100F10009D5F822F692F4C810E941D1A8A81282F84
:100F20002E5F8B81982F9D5F822F692F4C810E94AD
:100F30001D1A8A81282F2D5F8B81982F9D5F822F0C
:100F4000692F4C810E941D1A8A81282F2C5F8B816A
:100F5000982F9C5F822F692F4C810E941D1A8B81D4
:100F6000982F9B5F8A81692F4C810E941D1A8A816C
:100F7000282F2C5F8B81982F9B5F822F692F4C81AC
:100F80000E941D1A8A81282F2F5F8B81982F9A5FCC
:100F9000822F692F4C810E941D1A8A81282F2E5F73
:100FA0008B81982F9A5F822F692F4C810E941D1A86
:100FB0008A81282F2D5F8B81982F9A5F822F692F2E
:100FC0004C810E941D1A21E02F830C94131A8A81F0
:100FD0006B810ED98A818F5F6B814C810E941D1AB3
:100FE0008A818E5F6B814C810E941D1A8A818D5F80
:100FF0006B814C810E941D1A8B81982F9F5F8A8183
:10100000692F4C810E941D1A8A81282F2C5F8B81A9
:10101000982F9F5F822F692F4C810E941D1A8B8110
:10102000982F9E5F8A81692F4C810E941D1A8B81A7
:10103000982F9D5F8A81692F4C810E941D1A8A8199
:10104000282F2F5F8B81982F9D5F822F692F4C81D6
:101050000E941D1A8A81282F2E5F8B81982F9D5FF9
:10106000822F692F4C810E941D1A8A81282F2D5FA3
:101070008B81982F9D5F822F692F4C810E941D1AB2
:101080008B81982F9C5F8A81692F4C810E941D1A49
:101090008A81282F2C5F8B81982F9C5F822F692F4C
:1010A0004C810E941D1A8B81982F9B5F8A81692F2A
:1010B0004C810E941D1A8A81282F2C5F8B81982FCA
:1010C0009B5F822F692F4C810E941D1A8A81282FD5
:1010D0002F5F8B81982F9A5F822F692F4C810E94FE
:1010E0001D1A8A81282F2E5F8B81982F9A5F822F5D
:1010F000692F4C810E941D1A8A81282F2D5F8B81B8
:10110000982F9A5F822F692F4C810E941D1A31E01F
:101110003F830C94131A8A816B816AD88A816B8110
:101120004C810E941D1A8A818F5F6B814C810E94C5
:101130001D1A8A818E5F6B814C810E941D1A8A81E3
:101140008D5F6B814C810E941D1A8A818C5F6B813F
:101150004C810E941D1A8A81282F2C5F8B81982F29
:101160009F5F822F692F4C810E941D1A8A81282F30
:101170002C5F8B81982F9E5F822F692F4C810E945C
:101180001D1A8A81282F2D5F8B81982F9D5F822FBA
:10119000692F4C810E941D1A8A81282F2E5F8B8116
:1011A000982F9C5F822F692F4C810E941D1A8A8183
:1011B000282F2E5F8B81982F9B5F822F692F4C8168
:1011C0000E941D1A8A81282F2E5F8B81982F9A5F8B
:1011D000822F692F4C810E941D1A81E08F830C940D
:1011E000131A8A816B8104D88A818F5F6B814C814D
:1011F0000E941D1A8A818E5F6B814C810E941D1A8C
:101200008A818D5F6B814C810E941D1A8B81982F82
:101210009F5F8A81692F4C810E941D1A8A81282F25
:101220002C5F8B81982F9F5F822F692F4C810E94AA
:101230001D1A8B81982F9E5F8A81692F4C810E9495
:101240001D1A8A81282F2C5F8B81982F9E5F822FF9
:10125000692F4C810E941D1A8A81282F2F5F8B8154
:10126000982F9D5F822F692F4C810E941D1A8A81C1
:10127000282F2E5F8B81982F9D5F822F692F4C81A5
:101280000E941D1A8A81282F2D5F8B81982F9D5FC8
:10129000822F692F4C810E941D1A8B81982F9C5F91
:1012A0008A81692F4C810E941D1A8A81282F2C5F08
:1012B0008B81982F9C5F822F692F4C810E941D1A71
:1012C0008B81982F9B5F8A81692F4C810E941D1A08
:1012D0008A81282F2C5F8B81982F9B5F822F692F0B
:1012E0004C810E941D1A8A81282F2F5F8B81982F95
:1012F0009A5F822F692F4C810E941D1A8A81282FA4
:101300002E5F8B81982F9A5F822F692F4C810E94CC
:101310001D1A8A81282F2D5F8B81982F9A5F822F2B
:10132000692F4C810E941D1A91E09F830C94131A1F
:101330008A816B810E94F8008A818F5F6B814C816A
:101340000E941D1A8A818E5F6B814C810E941D1A3A
:101350008A818D5F6B814C810E941D1A8B81982F31
:101360009F5F8A81692F4C810E941D1A8A81282FD4
:101370002C5F8B81982F9F5F822F692F4C810E9459
:101380001D1A8B81982F9E5F8A81692F4C810E9444
:101390001D1A8A81282F2C5F8B81982F9E5F822FA8
:1013A000692F4C810E941D1A8A81282F2F5F8B8103
:1013B000982F9D5F822F692F4C810E941D1A8A8170
:1013C000282F2E5F8B81982F9D5F822F692F4C8154
:1013D0000E941D1A8A81282F2D5F8B81982F9D5F77
:1013E000822F692F4C810E941D1A8A81282F2C5F21
:1013F0008B81982F9D5F822F692F4C810E941D1A2F
:101400008A81282F2C5F8B81982F9C5F822F692FD8
:101410004C810E941D1A8B81982F9B5F8A81692FB6
:101420004C810E941D1A8A81282F2C5F8B81982F56
:101430009B5F822F692F4C810E941D1A8A81282F61
:101440002F5F8B81982F9A5F822F692F4C810E948A
:101450001D1A8A81282F2E5F8B81982F9A5F822FE9
:10146000692F4C810E941D1A8A81282F2D5F8B8144
:10147000982F9A5F822F692F4C810E941D1A21E0BC
:101480002F830C94131A8A816B810E94F8008A8141
:101490006B810E94F8008F830C94131A8A816B81F0
:1014A0000E94F8008A81282F2E5F8B81982F9E5FE3
:1014B000822F692F4C810E941D1A8A81282F2E5F4E
:1014C0008B81982F9C5F822F692F4C810E941D1A5F
:1014D00031E03F830C94131A8A816B810E94F800DB
:1014E0008A81282F2F5F8B81982F9D5F822F692FF4
:1014F0004C810E941D1A8A81282F2E5F8B81982F84
:101500009D5F822F692F4C810E941D1A81E08F837D
:101510000C94131A8A816B810E94F8008B81982F9A
:101520009F5F8A81692F4C810E941D1A8A81282F12
:101530002D5F8B81982F9F5F822F692F4C810E9496
:101540001D1A8B81982F9E5F8A81692F4C810E9482
:101550001D1A8A81282F2D5F8B81982F9E5F822FE5
:10156000692F4C810E941D1A8A81282F2F5F8B8141
:10157000982F9D5F822F692F4C810E941D1A8A81AE
:10158000282F2E5F8B81982F9D5F822F692F4C8192
:101590000E941D1A8B81982F9C5F8A81692F4C8134
:1015A0000E941D1A8A81282F2D5F8B81982F9C5FA6
:1015B000822F692F4C810E941D1A8B81982F9B5F6F
:1015C0008A81692F4C810E941D1A8A81282F2D5FE4
:1015D0008B81982F9B5F822F692F4C810E941D1A4F
:1015E00091E09F830C94131A8A816B810E94F8000A
:1015F0008A816B814C810E941D1A8A818F5F6B8169
:101600004C810E941D1A8B81982F9F5F8A81692FC0
:101610004C810E941D1A8A81282F2F5F8B81982F61
:101620009F5F822F692F4C810E941D1A8A81282F6B
:101630002C5F8B81982F9F5F822F692F4C810E9496
:101640001D1A8A81282F2D5F8B81982F9E5F822FF4
:10165000692F4C810E941D1A8A81282F2E5F8B8151
:10166000982F9D5F822F692F4C810E941D1A8A81BD
:10167000282F2F5F8B81982F9C5F822F692F4C81A1
:101680000E941D1A8B81982F9B5F8A81692F4C8144
:101690000E941D1A8A81282F2D5F8B81982F9B5FB6
:1016A000822F692F4C810E941D1A8A81282F2C5F5E
:1016B0008B81982F9B5F822F692F4C810E941D1A6E
:1016C0008A81282F2D5F8B81982F9A5F822F692F17
:1016D0004C810E941D1A8A81282F2C5F8B81982FA4
:1016E0009A5F822F692F4C810E941D1A21E02F835F
:1016F0000C94131A8A816B810E94F8008A81282F2A
:101700002F5F8B81982F9F5F822F692F4C810E94C2
:101710001D1A8A81282F2E5F8B81982F9F5F822F21
:10172000692F4C810E941D1A8A81282F2D5F8B8181
:10173000982F9F5F822F692F4C810E941D1A8B81E9
:10174000982F9E5F8A81692F4C810E941D1A8A8181
:10175000282F2C5F8B81982F9E5F822F692F4C81C1
:101760000E941D1A8B81982F9D5F8A81692F4C8161
:101770000E941D1A8A81282F2C5F8B81982F9D5FD4
:10178000822F692F4C810E941D1A8B81982F9C5F9C
:101790008A81692F4C810E941D1A8A81282F2F5F10
:1017A0008B81982F9C5F822F692F4C810E941D1A7C
:1017B0008A81282F2E5F8B81982F9C5F822F692F23
:1017C0004C810E941D1A8A81282F2D5F8B81982FB2
:1017D0009C5F822F692F4C810E941D1A8A81282FBD
:1017E0002C5F8B81982F9C5F822F692F4C810E94E8
:1017F0001D1A8B81982F9B5F8A81692F4C810E94D3
:101800001D1A8A81282F2C5F8B81982F9B5F822F36
:10181000692F4C810E941D1A8B81982F9A5F8A81B3
:10182000692F4C810E941D1A8A81282F2C5F8B8181
:10183000982F9A5F822F692F4C810E941D1A31E0E8
:101840003F830C94131A8A816B810E94F8008B816C
:10185000982F9F5F8A81692F4C810E941D1A8A816F
:10186000282F2F5F8B81982F9F5F822F692F4C81AC
:101870000E941D1A8A81282F2E5F8B81982F9F5FCF
:10188000822F692F4C810E941D1A8B81982F9E5F99
:101890008A81692F4C810E941D1A8A81282F2D5F11
:1018A0008B81982F9E5F822F692F4C810E941D1A79
:1018B0008B81982F9D5F8A81692F4C810E941D1A10
:1018C0008A81282F2D5F8B81982F9D5F822F692F12
:1018D0004C810E941D1A8B81982F9C5F8A81692FF1
:1018E0004C810E941D1A8A81282F2F5F8B81982F8F
:1018F0009C5F822F692F4C810E941D1A8A81282F9C
:101900002E5F8B81982F9C5F822F692F4C810E94C4
:101910001D1A8B81982F9B5F8A81692F4C810E94B1
:101920001D1A8B81982F9A5F8A81692F4C810E94A2
:101930001D1A81E08F830C94131A8A816B810E9497
:10194000F8008A818F5F6B814C810E941D1A8A8109
:101950008E5F6B814C810E941D1A8A818D5F6B8125
:101960004C810E941D1A8B81982F9F5F8A81692F5D
:101970004C810E941D1A8A81282F2C5F8B81982F01
:101980009F5F822F692F4C810E941D1A8B81982F97
:101990009E5F8A81692F4C810E941D1A8A81282F9F
:1019A0002C5F8B81982F9E5F822F692F4C810E9424
:1019B0001D1A8B81982F9D5F8A81692F4C810E940F
:1019C0001D1A8A81282F2F5F8B81982F9D5F822F70
:1019D000692F4C810E941D1A8A81282F2E5F8B81CE
:1019E000982F9D5F822F692F4C810E941D1A8A813A
:1019F000282F2D5F8B81982F9D5F822F692F4C811F
:101A00000E941D1A8A81282F2C5F8B81982F9D5F41
:101A1000822F692F4C810E941D1A8B81982F9C5F09
:101A20008A81692F4C810E941D1A8A81282F2C5F80
:101A30008B81982F9C5F822F692F4C810E941D1AE9
:101A40008B81982F9B5F8A81692F4C810E941D1A80
:101A50008A81282F2C5F8B81982F9B5F822F692F83
:101A60004C810E941D1A8B81982F9A5F8A81692F61
:101A70004C810E941D1A8A81282F2C5F8B81982F00
:101A80009A5F822F692F4C810E941D1A91E09F83DB
:101A90000C94131A8A816B810E94F8008A816B81F1
:101AA0004C810E941D1A8A818F5F6B814C810E943C
:101AB0001D1A8A818E5F6B814C810E941D1A8A815A
:101AC0008D5F6B814C810E941D1A8B81982F9F5FC7
:101AD0008A81692F4C810E941D1A8A81282F2C5FD0
:101AE0008B81982F9F5F822F692F4C810E941D1A36
:101AF0008B81982F9E5F8A81692F4C810E941D1ACD
:101B00008A81282F2C5F8B81982F9E5F822F692FCF
:101B10004C810E941D1A8B81982F9D5F8A81692FAD
:101B20004C810E941D1A8A81282F2F5F8B81982F4C
:101B30009D5F822F692F4C810E941D1A8A81282F58
:101B40002E5F8B81982F9D5F822F692F4C810E9481
:101B50001D1A8A81282F2D5F8B81982F9D5F822FE0
:101B6000692F4C810E941D1A8B81982F9C5F8A815E
:101B7000692F4C810E941D1A8A81282F2C5F8B812E
:101B8000982F9C5F822F692F4C810E941D1A8B8198
:101B9000982F9B5F8A81692F4C810E941D1A8A8130
:101BA000282F2C5F8B81982F9B5F822F692F4C8170
:101BB0000E941D1A8B81982F9A5F8A81692F4C8110
:101BC0000E941D1A8A81282F2F5F8B81982F9A5F80
:101BD000822F692F4C810E941D1A8A81282F2E5F27
:101BE0008B81982F9A5F822F692F4C810E941D1A3A
:101BF0008A81282F2D5F8B81982F9A5F822F692FE2
:101C00004C810E941D1A21E02F830C94131A8A81A3
:101C10006B810E94F8008A818F5F6B814C810E94EA
:101C20001D1A8A818E5F6B814C810E941D1A8A81E8
:101C30008D5F6B814C810E941D1A8B81982F9F5F55
:101C40008A81692F4C810E941D1A8A81282F2C5F5E
:101C50008B81982F9F5F822F692F4C810E941D1AC4
:101C60008B81982F9E5F8A81692F4C810E941D1A5B
:101C70008B81982F9D5F8A81692F4C810E941D1A4C
:101C80008B81982F9C5F8A81692F4C810E941D1A3D
:101C90008B81982F9B5F8A81692F4C810E941D1A2E
:101CA0008A81282F2C5F8B81982F9B5F822F692F31
:101CB0004C810E941D1A8A81282F2F5F8B81982FBB
:101CC0009A5F822F692F4C810E941D1A8A81282FCA
:101CD0002E5F8B81982F9A5F822F692F4C810E94F3
:101CE0001D1A8A81282F2D5F8B81982F9A5F822F52
:101CF000692F4C810E941D1A31E03F830C94131A06
:101D00008A816B810E94F8008A816B814C810E94DC
:101D10001D1A8A818F5F6B814C810E941D1A8A81F6
:101D20008E5F6B814C810E941D1A8A818D5F6B8151
:101D30004C810E941D1A8B81982F9F5F8A81692F89
:101D40004C810E941D1A8A81282F2C5F8B81982F2D
:101D50009F5F822F692F4C810E941D1A8B81982FC3
:101D60009E5F8A81692F4C810E941D1A8A81282FCB
:101D70002C5F8B81982F9E5F822F692F4C810E9450
:101D80001D1A8B81982F9D5F8A81692F4C810E943B
:101D90001D1A8A81282F2C5F8B81982F9D5F822F9F
:101DA000692F4C810E941D1A8B81982F9C5F8A811C
:101DB000692F4C810E941D1A8A81282F2C5F8B81EC
:101DC000982F9C5F822F692F4C810E941D1A8B8156
:101DD000982F9B5F8A81692F4C810E941D1A8A81EE
:101DE000282F2C5F8B81982F9B5F822F692F4C812E
:101DF0000E941D1A8B81982F9A5F8A81692F4C81CE
:101E00000E941D1A8A81282F2F5F8B81982F9A5F3D
:101E1000822F692F4C810E941D1A8A81282F2E5FE4
:101E20008B81982F9A5F822F692F4C810E941D1AF7
:101E30008A81282F2D5F8B81982F9A5F822F692F9F
:101E40004C810E941D1A81E08F830C94131A8A81A1
:101E50006B810E94F8008A816B814C810E941D1A5F
:101E60008A818F5F6B814C810E941D1A8A818E5FEF
:101E70006B814C810E941D1A8A818D5F6B814C8120
:101E80000E941D1A8A818C5F6B814C810E941D1AF1
:101E90008B81982F9F5F8A81692F4C810E941D1A28
:101EA0008B81982F9E5F8A81692F4C810E941D1A19
:101EB0008B81982F9D5F8A81692F4C810E941D1A0A
:101EC0008A81282F2F5F8B81982F9D5F822F692F0A
:101ED0004C810E941D1A8A81282F2E5F8B81982F9A
:101EE0009D5F822F692F4C810E941D1A8A81282FA5
:101EF0002D5F8B81982F9D5F822F692F4C810E94CF
:101F00001D1A8A81282F2C5F8B81982F9D5F822F2D
:101F1000692F4C810E941D1A8B81982F9C5F8A81AA
:101F2000692F4C810E941D1A8B81982F9B5F8A819B
:101F3000692F4C810E941D1A8B81982F9A5F8A818C
:101F4000692F4C810E941D1A8A81282F2F5F8B8157
:101F5000982F9A5F822F692F4C810E941D1A8A81C7
:101F6000282F2E5F8B81982F9A5F822F692F4C81AB
:101F70000E941D1A8A81282F2D5F8B81982F9A5FCE
:101F8000822F692F4C810E941D1A8A81282F2C5F75
:101F90008B81982F9A5F822F692F4C810E941D1A86
:101FA00091E09F830C94131A8A816B810E94F80040
:101FB0008A816B814C810E941D1A8A818F5F6B819F
:101FC0004C810E941D1A8A818E5F6B814C810E9418
:101FD0001D1A8A818D5F6B814C810E941D1A8A8136
:101FE0008C5F6B814C810E941D1A8B81982F9F5FA3
:101FF0008A81692F4C810E941D1A8B81982F9E5FC8
:102000008A81692F4C810E941D1A8B81982F9D5FB8
:102010008A81692F4C810E941D1A8A81282F2F5F87
:102020008B81982F9D5F822F692F4C810E941D1AF2
:102030008A81282F2E5F8B81982F9D5F822F692F99
:102040004C810E941D1A8B81982F9C5F8A81692F79
:102050004C810E941D1A8B81982F9B5F8A81692F6A
:102060004C810E941D1A8B81982F9A5F8A81692F5B
:102070004C810E941D1A21E02F830C94131A8A812F
:102080006B810E94F8008A818F5F6B814C810E9476
:102090001D1A8A818E5F6B814C810E941D1A8A8174
:1020A0008D5F6B814C810E941D1A8B81982F9F5FE1
:1020B0008A81692F4C810E941D1A8A81282F2C5FEA
:1020C0008B81982F9F5F822F692F4C810E941D1A50
:1020D0008B81982F9E5F8A81692F4C810E941D1AE7
:1020E0008A81282F2C5F8B81982F9E5F822F692FEA
:1020F0004C810E941D1A8B81982F9D5F8A81692FC8
:102100004C810E941D1A8B81982F9C5F8A81692FB8
:102110004C810E941D1A8A81282F2E5F8B81982F57
:102120009C5F822F692F4C810E941D1A8A81282F63
:102130002D5F8B81982F9C5F822F692F4C810E948D
:102140001D1A8A81282F2C5F8B81982F9C5F822FEC
:10215000692F4C810E941D1A8B81982F9B5F8A8169
:10216000692F4C810E941D1A8A81282F2C5F8B8138
:10217000982F9B5F822F692F4C810E941D1A8A81A4
:10218000282F2F5F8B81982F9A5F822F692F4C8188
:102190000E941D1A8A81282F2E5F8B81982F9A5FAB
:1021A000822F692F4C810E941D1A8A81282F2D5F52
:1021B0008B81982F9A5F822F692F4C810E941D1A64
:1021C00031E03F830C94131A8A816B810E94F800DE
:1021D0008A816B814C810E941D1A8A818C5F6B8180
:1021E0004C810E941D1A8B81982F9F5F8A81692FD5
:1021F0004C810E941D1A8A81282F2C5F8B81982F79
:102200009F5F822F692F4C810E941D1A8B81982F0E
:102210009E5F8A81692F4C810E941D1A8A81282F16
:102220002C5F8B81982F9E5F822F692F4C810E949B
:102230001D1A8B81982F9D5F8A81692F4C810E9486
:102240001D1A8A81282F2F5F8B81982F9D5F822FE7
:10225000692F4C810E941D1A8A81282F2E5F8B8145
:10226000982F9D5F822F692F4C810E941D1A8A81B1
:10227000282F2D5F8B81982F9D5F822F692F4C8196
:102280000E941D1A8A81282F2C5F8B81982F9D5FB9
:10229000822F692F4C810E941D1A8B81982F9C5F81
:1022A0008A81692F4C810E941D1A8A81282F2C5FF8
:1022B0008B81982F9C5F822F692F4C810E941D1A61
:1022C0008B81982F9B5F8A81692F4C810E941D1AF8
:1022D0008A81282F2C5F8B81982F9B5F822F692FFB
:1022E0004C810E941D1A8B81982F9A5F8A81692FD9
:1022F0004C810E941D1A8A81282F2C5F8B81982F78
:102300009A5F822F692F4C810E941D1A81E08F8372
:102310000C94131A8A816B810E94F8008A818E5F67
:102320006B814C810E941D1A8A81282F2E5F8B8120
:10233000982F9F5F822F692F4C810E941D1A8A81DE
:10234000282F2E5F8B81982F9E5F822F692F4C81C3
:102350000E941D1A8A81282F2E5F8B81982F9D5FE6
:10236000822F692F4C810E941D1A8A81282F2E5F8F
:102370008B81982F9C5F822F692F4C810E941D1AA0
:102380008A81282F2E5F8B81982F9B5F822F692F48
:102390004C810E941D1A8A81282F2E5F8B81982FD5
:1023A0009A5F822F692F4C810E941D1A91E09F83B2
:1023B0000C94131A8A816B810E94F8008A818E5FC7
:1023C0006B814C810E941D1A8A81282F2E5F8B8180
:1023D000982F9F5F822F692F4C810E941D1A8A813E
:1023E000282F2E5F8B81982F9E5F822F692F4C8123
:1023F0000E941D1A8A81282F2E5F8B81982F9D5F46
:10240000822F692F4C810E941D1A8A81282F2E5FEE
:102410008B81982F9C5F822F692F4C810E941D1AFF
:102420008B81982F9B5F8A81692F4C810E941D1A96
:102430008A81282F2E5F8B81982F9B5F822F692F97
:102440004C81FBD78A81282F2F5F8B81982F9A5F31
:10245000822F692F4C81F1D721E02F83E4C78A8135
:102460006B810E94F8008A816B814C81E6D78A815A
:102470008C5F6B814C81E1D78B81982F9F5F8A8124
:10248000692F4C81DAD78A81282F2D5F8B81982F75
:102490009F5F822F692F4C81D0D78B81982F9E5FB1
:1024A0008A81692F4C81C9D78A81282F2E5F8B8121
:1024B000982F9E5F822F692F4C81BFD78B81982FD9
:1024C0009D5F8A81692F4C81B8D78A81282F2F5F21
:1024D0008B81982F9D5F822F692F4C81AED78B8186
:1024E000982F9C5F8A81692F4C81A7D78A81282FDA
:1024F0002E5F8B81982F9C5F822F692F4C819DD7F7
:102500008B81982F9B5F8A81692F4C8196D78A8116
:10251000282F2D5F8B81982F9B5F822F692F4C81F5
:102520008CD78B81982F9A5F8A81692F4C8185D7B0
:102530008A81282F2C5F8B81982F9A5F822F692F99
:102540004C817BD731E03F836EC78A816B810E94CB
:10255000F8008A816B814C8170D78B81982F9F5FA7
:102560008A81692F4C8169D78B81982F9E5F8A81E0
:10257000692F4C8162D78B81982F9D5F8A81692F4B
:102580004C815BD78B81982F9C5F8A81692F4C810E
:1025900054D78B81982F9B5F8A81692F4C814DD7AF
:1025A0008B81982F9A5F8A81692F4C8146D78A81C7
:1025B000282F2F5F8B81982F9A5F822F692F4C8154
:1025C0003CD78A81282F2E5F8B81982F9A5F822F8C
:1025D000692F4C8132D78A81282F2D5F8B81982FCC
:1025E0009A5F822F692F4C8128D78A81282F2C5FF0
:1025F0008B81982F9A5F822F692F4C811ED781E0A3
:102600008F8311C78A816B810E94F8008A816B8158
:102610004C8113D78A818C5F6B814C810ED78B8163
:10262000982F9F5F8A81692F4C8107D78A81282F35
:102630002F5F8B81982F9F5F822F692F4C81FDD652
:102640008A81282F2D5F8B81982F9F5F822F692F82
:102650004C81F3D68A81282F2C5F8B81982F9F5F26
:10266000822F692F4C81E9D68B81982F9E5F8A81BA
:10267000692F4C81E2D68A81282F2E5F8B81982F7B
:102680009E5F822F692F4C81D8D68A81282F2C5F9C
:102690008B81982F9E5F822F692F4C81CED68B81A4
:1026A000982F9D5F8A81692F4C81C7D68A81282FF8
:1026B0002C5F8B81982F9D5F822F692F4C81BDD617
:1026C0008B81982F9C5F8A81692F4C81B6D68A8135
:1026D000282F2C5F8B81982F9C5F822F692F4C8134
:1026E000ACD68B81982F9B5F8A81692F4C81A5D6B0
:1026F0008A81282F2C5F8B81982F9B5F822F692FD7
:102700004C819BD68B81982F9A5F8A81692F4C814F
:1027100094D68A81282F2C5F8B81982F9A5F822FE5
:10272000692F4C818AD691E09F837DC68A816B8117
:102730000E94F8008A816B814C817FD68A818C5FF0
:102740006B814C817AD68B81982F9F5F8A81692F0C
:102750004C8173D68A81282F2C5F8B81982F9F5FA5
:10276000822F692F4C8169D68B81982F9E5F8A8139
:10277000692F4C8162D68A81282F2F5F8B81982FF9
:102780009E5F822F692F4C8158D68A81282F2C5F1B
:102790008B81982F9E5F822F692F4C814ED68B8123
:1027A000982F9D5F8A81692F4C8147D68A81282F77
:1027B0002E5F8B81982F9D5F822F692F4C813DD694
:1027C0008A81282F2C5F8B81982F9D5F822F692F04
:1027D0004C8133D68B81982F9C5F8A81692F4C81E5
:1027E0002CD68A81282F2D5F8B81982F9C5F822F7A
:1027F000692F4C8122D68A81282F2C5F8B81982FBC
:102800009C5F822F692F4C8118D68B81982F9B5FFC
:102810008A81692F4C8111D68A81282F2C5F8B8168
:10282000982F9B5F822F692F4C8107D68B81982F21
:102830009A5F8A81692F4C8100D68A81282F2C5F6C
:102840008B81982F9A5F822F692F4C81F6D521E0DA
:102850002F83E9C58A816B810E94F8008A818F5F8E
:102860006B814C81EAD58A818E5F6B814C81E5D585
:102870008A818D5F6B814C81E0D58B81982F9F5F22
:102880008A81692F4C81D9D58A81282F2C5F8B8131
:10289000982F9F5F822F692F4C81CFD58B81982FE6
:1028A0009E5F8A81692F4C81C8D58A81282F2C5F31
:1028B0008B81982F9E5F822F692F4C81BED58B8193
:1028C000982F9D5F8A81692F4C81B7D58A81282FE7
:1028D0002C5F8B81982F9D5F822F692F4C81ADD506
:1028E0008B81982F9C5F8A81692F4C81A6D58A8124
:1028F000282F2C5F8B81982F9C5F822F692F4C8112
:102900009CD58B81982F9B5F8A81692F4C8195D5AF
:102910008A81282F2C5F8B81982F9B5F822F692FB4
:102920004C818BD58A81282F2F5F8B81982F9A5FBE
:10293000822F692F4C8181D58A81282F2E5F8B8130
:10294000982F9A5F822F692F4C8177D58A81282F03
:102950002D5F8B81982F9A5F822F692F4C816DD5C7
:1029600031E03F8360C58A816B810E94F8008A81D3
:102970006B814C8162D58A818F5F6B814C815DD583
:102980008A818E5F6B814C8158D58A818D5F6B8186
:102990004C8153D58B81982F9F5F8A81692F4C8101
:1029A0004CD58A81282F2C5F8B81982F9F5F822F97
:1029B000692F4C8142D58B81982F9E5F8A81692F28
:1029C0004C813BD58A81282F2C5F8B81982F9E5F6D
:1029D000822F692F4C8131D58B81982F9D5F8A8101
:1029E000692F4C812AD58A81282F2F5F8B81982FC0
:1029F0009D5F822F692F4C8120D58A81282F2E5FE1
:102A00008B81982F9D5F822F692F4C8116D58A81EB
:102A1000282F2D5F8B81982F9D5F822F692F4C81EE
:102A20000CD58B81982F9C5F8A81692F4C8105D5AD
:102A30008B81982F9B5F8A81692F4C81FED48B817B
:102A4000982F9A5F8A81692F4C81F7D481E08F8318
:102A5000EAC48A816B810E94F8008A818F5F6B8152
:102A60004C81EBD48A818E5F6B814C81E6D48A8164
:102A70008D5F6B814C81E1D48B81982F9F5F8A8120
:102A8000692F4C81DAD48A81282F2C5F8B81982F73
:102A90009F5F822F692F4C81D0D48B81982F9E5FAE
:102AA0008A81692F4C81C9D48A81282F2C5F8B8120
:102AB000982F9E5F822F692F4C81BFD48B81982FD6
:102AC0009D5F8A81692F4C81B8D48A81282F2C5F21
:102AD0008B81982F9D5F822F692F4C81AED48B8183
:102AE000982F9C5F8A81692F4C81A7D48A81282FD7
:102AF0002E5F8B81982F9C5F822F692F4C819DD4F4
:102B00008A81282F2C5F8B81982F9C5F822F692FC1
:102B10004C8193D48B81982F9B5F8A81692F4C8144
:102B20008CD48A81282F2D5F8B81982F9B5F822FD9
:102B3000692F4C8182D48A81282F2C5F8B81982F1A
:102B40009B5F822F692F4C8178D48A81282F2F5F39
:102B50008B81982F9A5F822F692F4C816ED48A8146
:102B6000282F2E5F8B81982F9A5F822F692F4C819F
:102B700064D48A81282F2D5F8B81982F9A5F822FB2
:102B8000692F4C815AD48A81282F2C5F8B81982FF2
:102B90009A5F822F692F4C8150D491E09F8343C468
:102BA0008A816B810E94F8008A816B814C8145D4B7
:102BB0008A818F5F6B814C8140D48A818E5F6B816B
:102BC0004C813BD48A818D5F6B814C8136D48B8163
:102BD000982F9F5F8A81692F4C812FD48A81282F5B
:102BE0002C5F8B81982F9F5F822F692F4C8125D47A
:102BF0008B81982F9E5F8A81692F4C811ED48A8198
:102C0000282F2C5F8B81982F9E5F822F692F4C81FC
:102C100014D48B81982F9D5F8A81692F4C810DD4AC
:102C20008A81282F2F5F8B81982F9D5F822F692F9C
:102C30004C8103D48A81282F2E5F8B81982F9D5F32
:102C4000822F692F4C81F9D38A81282F2D5F8B81A8
:102C5000982F9D5F822F692F4C81EFD38B81982F06
:102C60009C5F8A81692F4C81E8D38A81282F2C5F51
:102C70008B81982F9C5F822F692F4C81DED38B81B3
:102C8000982F9B5F8A81692F4C81D7D38A81282F07
:102C90002C5F8B81982F9B5F822F692F4C81CDD326
:102CA0008B81982F9A5F8A81692F4C81C6D38A8144
:102CB000282F2C5F8B81982F9A5F822F692F4C8150
:102CC000BCD321E02F83AFC38A816B810E94F800BF
:102CD0008A818F5F6B814C81B0D38A818E5F6B81DB
:102CE0004C81ABD38A818D5F6B814C81A6D38B8164
:102CF000982F9F5F8A81692F4C819FD38A81282FCB
:102D00002C5F8B81982F9F5F822F692F4C8195D3E9
:102D10008B81982F9E5F8A81692F4C818ED38A8107
:102D2000282F2F5F8B81982F9D5F822F692F4C81D9
:102D300084D38A81282F2E5F8B81982F9D5F822FCD
:102D4000692F4C817AD38A81282F2D5F8B81982F10
:102D50009D5F822F692F4C8170D38A81282F2C5F31
:102D60008B81982F9C5F822F692F4C8166D38B813A
:102D7000982F9B5F8A81692F4C815FD38A81282F8E
:102D80002C5F8B81982F9B5F822F692F4C8155D3AD
:102D90008A81282F2F5F8B81982F9A5F822F692F2E
:102DA0004C814BD38A81282F2E5F8B81982F9A5F7D
:102DB000822F692F4C8141D38A81282F2D5F8B81EF
:102DC000982F9A5F822F692F4C8137D331E03F8350
:102DD0002AC38A816B810E94F8008A816B814C81B1
:102DE0002CD38A818F5F6B814C8127D38A818E5F40
:102DF0006B814C8122D38A818D5F6B814C811DD385
:102E00008A818C5F6B814C8118D38A81282F2E5F39
:102E10008B81982F9F5F822F692F4C810ED38A81DF
:102E2000282F2E5F8B81982F9E5F822F692F4C81D8
:102E300004D38A81282F2E5F8B81982F9D5F822F4C
:102E4000692F4C81FAD28A81282F2E5F8B81982F8F
:102E50009C5F822F692F4C81F0D28A81282F2E5FB0
:102E60008B81982F9B5F822F692F4C81E6D28A81BC
:102E7000282F2E5F8B81982F9A5F822F692F4C818C
:102E8000DCD281E08F83CFC28A816B810E94F800FF
:102E90008A816B814C81D1D28A818C5F6B814C811C
:102EA000CCD28B81982F9F5F8A81692F4C81C5D2AC
:102EB0008A81282F2C5F8B81982F9F5F822F692F0B
:102EC0004C81BBD28B81982F9E5F8A81692F4C8168
:102ED000B4D28A81282F2C5F8B81982F9E5F822FFE
:102EE000692F4C81AAD28B81982F9D5F8A81692F8F
:102EF0004C81A3D28A81282F2C5F8B81982F9D5FD4
:102F0000822F692F4C8199D28B81982F9C5F8A8167
:102F1000692F4C8192D28A81282F2C5F8B81982F28
:102F20009C5F822F692F4C8188D28B81982F9B5F69
:102F30008A81692F4C8181D28A81282F2C5F8B81D5
:102F4000982F9B5F822F692F4C8177D28A81282FFF
:102F50002F5F8B81982F9A5F822F692F4C816DD2C2
:102F60008A81282F2E5F8B81982F9A5F822F692F5D
:102F70004C8163D28A81282F2D5F8B81982F9A5F95
:102F8000822F692F4C8159D291E09F834CC28A8154
:102F90006B810E94F8008A816B814C814ED28A81BC
:102FA0008C5F6B814C8149D28B81982F9F5F8A8186
:102FB000692F4C8142D28A81282F2C5F8B81982FD8
:102FC0009F5F822F692F4C8138D28B81982F9E5F13
:102FD0008A81692F4C8131D28A81282F2C5F8B8185
:102FE000982F9E5F822F692F4C8127D28B81982F3B
:102FF0009D5F8A81692F4C8120D28A81282F2C5F86
:103000008B81982F9D5F822F692F4C8116D28B81E7
:10301000982F9C5F8A81692F4C810FD28A81282F3B
:103020002C5F8B81982F9C5F822F692F4C8105D25A
:103030008A81282F2F5F8B81982F9B5F822F692F8A
:103040004C81FBD18A81282F2D5F8B81982F9B5F2C
:10305000822F692F4C81F1D18A81282F2E5F8B819D
:10306000982F9A5F822F692F4C81E7D121E02F831F
:10307000DAC18A816B810E94F8008A816B814C8160
:10308000DCD18A818C5F6B814C81D7D18B81982F69
:103090009F5F8A81692F4C81D0D18A81282F2C5F34
:1030A0008B81982F9F5F822F692F4C81C6D18B8196
:1030B000982F9E5F8A81692F4C81BFD18A81282FEA
:1030C0002C5F8B81982F9E5F822F692F4C81B5D109
:1030D0008B81982F9D5F8A81692F4C81AED18A8127
:1030E000282F2C5F8B81982F9D5F822F692F4C8119
:1030F000A4D18B81982F9C5F8A81692F4C819DD1AF
:103100008A81282F2C5F8B81982F9C5F822F692FBB
:103110004C8193D18B81982F9B5F8A81692F4C8141
:103120008CD18A81282F2E5F8B81982F9B5F822FD5
:10313000692F4C8182D18A81282F2C5F8B81982F17
:103140009B5F822F692F4C8178D18A81282F2F5F36
:103150008B81982F9A5F822F692F4C816ED18A8143
:10316000282F2D5F8B81982F9A5F822F692F4C819A
:1031700064D131E03F8357C18A816B810E94F8009E
:103180008A816B814C8159D18A818C5F6B814C81A2
:1031900054D18B81982F9F5F8A81692F4C814DD1AB
:1031A0008A81282F2C5F8B81982F9F5F822F692F18
:1031B0004C8143D18A81282F2F5F8B81982F9E5F6E
:1031C000822F692F4C8139D18A81282F2D5F8B81E5
:1031D000982F9E5F822F692F4C812FD18A81282FB3
:1031E0002E5F8B81982F9D5F822F692F4C8125D177
:1031F0008A81282F2F5F8B81982F9C5F822F692FC8
:103200004C811BD18A81282F2D5F8B81982F9C5F49
:10321000822F692F4C8111D18B81982F9B5F8A81DE
:10322000692F4C810AD18A81282F2C5F8B81982F9E
:103230009B5F822F692F4C8100D18B81982F9A5FE1
:103240008A81692F4C81F9D08A81282F2C5F8B814C
:10325000982F9A5F822F692F4C81EFD081E08F8366
:10326000E2C08A816B810E94F8008A816B814C8167
:10327000E4D08A818C5F6B814C81DFD08B81982F69
:103280009F5F8A81692F4C81D8D08A81282F2C5F3B
:103290008B81982F9F5F822F692F4C81CED08B819D
:1032A000982F9E5F8A81692F4C81C7D08A81282FF1
:1032B0002C5F8B81982F9E5F822F692F4C81BDD010
:1032C0008A81282F2F5F8B81982F9D5F822F692FF6
:1032D0004C81B3D08A81282F2D5F8B81982F9D5FE1
:1032E000822F692F4C81A9D08A81282F2E5F8B8154
:1032F000982F9C5F822F692F4C819FD08A81282F25
:103300002E5F8B81982F9B5F822F692F4C8195D0E8
:103310008A81282F2E5F8B81982F9A5F822F692FA9
:103320004C818BD091E09F837EC08A816B810E940B
:10333000F8008A816B814C8180D08A818F5F6B819C
:103340004C817BD08A818E5F6B814C8176D08A8163
:103350008D5F6B814C8171D08A818C5F6B814C81D8
:103360006CD08A81282F2C5F8B81982F9F5F822FB2
:10337000692F4C8162D08A81282F2D5F8B81982FF5
:103380009E5F822F692F4C8158D08A81282F2E5F13
:103390008B81982F9D5F822F692F4C814ED08A811F
:1033A000282F2F5F8B81982F9C5F822F692F4C8154
:1033B00044D08B81982F9B5F8A81692F4C813DD0AF
:1033C0008B81982F9A5F8A81692F4C8136D08A81B0
:1033D000282F2F5F8B81982F9A5F822F692F4C8126
:1033E0002CD08A81282F2E5F8B81982F9A5F822F75
:1033F000692F4C8122D08A81282F2D5F8B81982FB5
:103400009A5F822F692F4C8118D08A81282F2C5FD8
:103410008B81982F9A5F822F692F4C810ED021E0EB
:103420002F8301C01F828F8127960FB6F894DEBFCD
:103430000FBECDBFCF91DF910895DF93CF9300D022
:1034400000D00F92CDB7DEB78B836C834D838B8119
:10345000803228F58C81803110F58B81282F30E067
:103460008C81882F90E0880F991F82959295907F8C
:103470009827807F9827820F931F9A8389832091B2
:1034800017013091180189819A81880F991FF901DC
:10349000E80FF91F8D81882F90E0918380830F9032
:1034A0000F900F900F900F90CF91DF910895DF93C1
:1034B000CF93CDB7DEB72D970FB6F894DEBF0FBE12
:1034C000CDBF1D861C861B861A86198618861F820C
:1034D0001E821D821C821B821A8219828091150114
:1034E000883008F0BDC180911001882329F1A5E240
:1034F000B0E0E5E2F0E0808183608C93A8E2B0E088
:10350000E8E2F0E0808180628C93A8E2B0E0E8E23B
:10351000F0E08081837E8C93A8E2B0E0E8E2F0E006
:103520008081282F80911501882F90E0880F991FA6
:10353000880F991F822B8C9380911401803208F0A0
:1035400064C180911401282F30E080911501882FEB
:1035500090E0880F991F82959295907F9827807FA1
:103560009827820F931F9D878C8780911401282FA5
:1035700030E080911501882F90E00896880F991F00
:1035800082959295907F9827807F9827820F931F2E
:103590009B878A8720911701309118018C859D8522
:1035A000880F991FF901E80FF91F808191818987A0
:1035B00020911701309118018A859B85880F991FEA
:1035C000F901E80FF91F808191818887A5E2B0E0B9
:1035D000E5E2F0E080818E7F8C938091100188235A
:1035E00019F0109210013CC18981282F30E084E04D
:1035F00090E002C0880F991F2A95E2F7982F8985DD
:1036000089238F838F8186958695282F30E0898145
:10361000882F90E0A90102C0559547958A95E2F759
:10362000CA018F838981282F30E082E090E002C0B8
:10363000880F991F2A95E2F7982F898589238E8311
:103640008E818695282F30E08981882F90E0A9010E
:1036500002C0559547958A95E2F7CA018E83898104
:10366000282F30E081E090E002C0880F991F2A9552
:10367000E2F7982F898589238D838D81282F30E06B
:103680008981882F90E0A90102C0559547958A95B8
:10369000E2F7CA018D838981282F30E084E090E031
:1036A00002C0880F991F2A95E2F7982F88858923F1
:1036B0008C838C8186958695282F30E08981882F90
:1036C00090E0A90102C0559547958A95E2F7CA0195
:1036D0008C838981282F30E082E090E002C0880F3F
:1036E000991F2A95E2F7982F888589238B838B81F0
:1036F0008695282F30E08981882F90E0A90102C0AB
:10370000559547958A95E2F7CA018B838981282FC1
:1037100030E081E090E002C0880F991F2A95E2F71F
:10372000982F888589238A838A81282F30E0898190
:10373000882F90E0A90102C0559547958A95E2F738
:10374000CA018A83ABE2B0E0EBE2F0E080818370F3
:103750008C93ABE2B0E0EBE2F0E08081382F8F8118
:10376000882F90E0880F991F880F991F282F8E812E
:10377000882F90E0880F991F880F991F880F991F35
:10378000282B8D81882F90E082959295907F9827A5
:10379000807F9827282B8C81882F90E0880F991F95
:1037A00082959295907F9827807F9827282B8B81F0
:1037B000882F90E000249695879507949695879595
:1037C0000794982F802D282B8A81882F90E096953A
:1037D000982F882797958795822B832B8C93A5E22A
:1037E000B0E0E5E2F0E0808181608C93909110017F
:1037F00081E08927882349F081E08093100180913E
:1038000014018F5F809314012BC0A8E2B0E0E8E2BE
:10381000F0E080818F7D8C93A5E2B0E0E5E2F0E0FE
:1038200080818D7F8C9380911001882331F08EE010
:1038300090E0EAD01092100113C08AE190E0E4D049
:1038400081E08093100110921401809115018F5F27
:103850008093150180911501883010F010921501A8
:103860002D960FB6F894DEBF0FBECDBFCF91DF917E
:103870000895DF93CF93CDB7DEB729970FB6F894AD
:10388000DEBF0FBECDBF9D838C836E834F832887A1
:103890001B828C819D81009729F419866DC08B81D4
:1038A0008F5F8B838B81282F30E08C819D81FC0181
:1038B000E20FF31F8081882391F78B81863010F00F
:1038C00019865AC08E81482F50E08B81282F30E016
:1038D000C901880F991F880F991F820F931F809528
:1038E000909580968417950714F4198645C08F81AA
:1038F000883010F0198640C01A82198233C029819D
:103900003A818C819D81FC01E20FF31F4081298166
:103910003A81C901880F991F820F931F880F991F41
:10392000982F8E81980F842F692F4F8128850E94B0
:10393000F702982F81E08927882379F029813A813D
:10394000C901880F991F820F931F880F991F982F05
:103950008E81890F6F810E94F80089819A8101967A
:103960009A8389838B81282F30E089819A818217FD
:1039700093072CF281E08987898529960FB6F89400
:10398000DEBF0FBECDBFCF91DF910895DF93CF9300
:1039900000D0CDB7DEB79A83898389819A812CE0E4
:1039A0008D3C920760F5E4E8F0E011821082A1E816
:1039B000B0E0E1E8F0E0808188608C93E8E8F0E036
:1039C00089819A819C01220F331F220F331FC90165
:1039D000880F991F880F991F820F931F019791835A
:1039E0008083AFE6B0E0EFE6F0E0808182608C9308
:1039F000A1E8B0E0E1E8F0E0808181608C930F9075
:103A00000F90CF91DF910895DF93CF9300D0CDB782
:103A1000DEB79A838983E8E8F0E089819A819C0186
:103A2000220F331F220F331FC901880F991F880FE0
:103A3000991F820F931F0197918380830F900F909E
:103A4000CF91DF910895DF93CF9300D0CDB7DEB74C
:103A50001092190180911901282F30E03A832983AF
:103A600089819A818230910531F129813A8123300F
:103A7000310554F489819A810097B1F029813A8106
:103A800021303105B1F02BC089819A8184309105B4
:103A9000E1F029813A812430310594F089819A81BD
:103AA00085309105B9F01BC0C1D181E08093190127
:103AB000D1CFD8D1CFCFDCD181E080931901CACF4B
:103AC000E0D181E080931901C5CFE4D181E08093FA
:103AD0001901C0CFE6D181E080931901BBCF1092CC
:103AE0001901B8CF1F920F920FB60F9211242F9386
:103AF0003F934F935F936F937F938F939F93AF9376
:103B0000BF93EF93FF93DF93CF93CDB7DEB7CFDCB7
:103B1000CF91DF91FF91EF91BF91AF919F918F91E5
:103B20007F916F915F914F913F912F910F900FBEB9
:103B30000F901F9018951F920F920FB60F9211249D
:103B4000DF93CF93CDB7DEB7CF91DF910F900FBE4C
:103B50000F901F901895DF93CF93CDB7DEB7A1E2FA
:103B6000B0E0E1E2F0E080818F608C93A2E2B0E00F
:103B7000E2E2F0E0808180678C93A2E2B0E0E2E2D2
:103B8000F0E08081807F8C93A8E6B0E0E8E6F0E08A
:103B9000808181608C93ABE6B0E0EBE6F0E0808161
:103BA00080678C93CF91DF910895DF93CF930F922D
:103BB000CDB7DEB780911201909113010E945C0095
:103BC000A2E2B0E0E2E2F0E080818F608C93A2E2BA
:103BD000B0E0E2E2F0E080818E7F8C93E0E2F0E002
:103BE0008081882F90E08071907090931F01809366
:103BF0001E01E0E2F0E08081882F90E080729070FA
:103C000090931B0180931A01E0E2F0E08081882FFD
:103C100090E08074907090932101809320018091B6
:103C20001E0190911F01009719F481E38983F9C067
:103C300080911A0190911B01009719F482E3898306
:103C4000F0C08091200190912101009719F483E345
:103C50008983E7C0A2E2B0E0E2E2F0E080818F6019
:103C60008C93A2E2B0E0E2E2F0E080818D7F8C9361
:103C7000E0E2F0E08081882F90E080719070909376
:103C80001F0180931E01E0E2F0E08081882F90E028
:103C90008072907090931B0180931A01E0E2F0E033
:103CA0008081882F90E080749070909321018093A0
:103CB000200180911E0190911F01009719F484E367
:103CC0008983AFC080911A0190911B01009719F46C
:103CD00085E38983A6C080912001909121010097FE
:103CE00019F486E389839DC0A2E2B0E0E2E2F0E04D
:103CF00080818F608C93A2E2B0E0E2E2F0E080810C
:103D00008B7F8C93E0E2F0E08081882F90E08071DF
:103D1000907090931F0180931E01E0E2F0E080819B
:103D2000882F90E08072907090931B0180931A010D
:103D3000E0E2F0E08081882F90E0807490709093B2
:103D400021018093200180911E0190911F01009715
:103D500019F487E3898365C080911A0190911B0152
:103D6000009719F488E389835CC0809120019091C9
:103D70002101009719F489E3898353C0A2E2B0E0DE
:103D8000E2E2F0E080818F608C93A2E2B0E0E2E2B8
:103D9000F0E08081877F8C93E0E2F0E08081882FE3
:103DA00090E08071907090931F0180931E01E0E27B
:103DB000F0E08081882F90E08072907090931B01DA
:103DC00080931A01E0E2F0E08081882F90E0807417
:103DD0009070909321018093200180911E01909119
:103DE0001F01009719F48AE289831BC080911A0190
:103DF00090911B01009719F480E3898312C0809190
:103E0000200190912101009719F483E2898309C070
:103E1000A2E2B0E0E2E2F0E08081807F8C938EE469
:103E2000898389810F90CF91DF910895DF93CF939C
:103E3000CDB7DEB7A5E5B0E0E5E5F0E080818068CC
:103E40008C93A5E5B0E0E5E5F0E0808180688C9397
:103E5000AFE5B0E0EFE5F0E0808180688C93CF9132
:103E6000DF910895DF93CF93CDB7DEB721D0FFCF99
:103E7000DF93CF93CDB7DEB780E091E00E94AA0236
:103E8000FFCFDF93CF93CDB7DEB785E091E00E94FF
:103E9000AA02FFCFDF93CF93CDB7DEB7CF91DF91EB
:103EA0000895DF93CF93CDB7DEB7CF91DF9108951B
:103EB000DF93CF9300D000D000D0CDB7DEB70E9403
:103EC00068028AE190E062DDA4E2B0E0E4E2F0E0C2
:103ED000808188608C933FDE8EE48E8388EC90E056
:103EE0000E945C0062DE8E838E818E3471F0A5E2CA
:103EF000B0E0E5E2F0E08081877F8C938E8160E026
:103F000040E024E00E94F702E7CFA5E2B0E0E5E25E
:103F1000F0E0808188608C9380E060E00E94F8008F
:103F2000DBCFAA1BBB1B51E107C0AA1FBB1FA617F3
:103F3000B70710F0A61BB70B881F991F5A95A9F752
:103F400080959095BC01CD010895CF93DF93BC017E
:103F50008230910510F462E070E0A0912401B091EC
:103F60002501ED01E0E0F0E040E050E021C0888173
:103F700099818617970769F48A819B81309719F098
:103F80009383828304C09093250180932401FE01D2
:103F900034C06817790738F44115510519F08417B2
:103FA000950708F4AC01FE018A819B819C01E9011F
:103FB0002097E9F641155105A9F1CA01861B970B17
:103FC000049708F4BA01E0E0F0E02AC08D919C91DA
:103FD000119784179507F9F46417750781F4129601
:103FE0008D919C911397309719F09383828304C02D
:103FF0009093250180932401FD0132964FC0CA01A0
:10400000861B970BFD01E80FF91F619371930297CF
:104010008D939C9343C0FD01828193819C01D901C2
:104020001097A1F68091220190912301892B41F4F0
:1040300080910C0190910D019093230180932201B6
:1040400040910E0150910F014115510541F44DB7BA
:104050005EB780910A0190910B01481B590B20918A
:1040600022013091230124173507B0F4CA01821BC5
:10407000930B8617970780F0AB014E5F5F4F841755
:10408000950750F0420F531F509323014093220194
:10409000F9016193719302C0E0E0F0E0CF01DF919C
:1040A000CF910895CF93DF93009709F450C0EC01AE
:1040B00022971B821A82A0912401B09125011097AA
:1040C00009F140E050E0AC17BD0708F1BB83AA83BB
:1040D000FE0121913191E20FF31FAE17BF0779F472
:1040E0008D919C911197280F391F2E5F3F4F398377
:1040F000288312968D919C9113979B838A834115F7
:10410000510571F4D0932501C093240120C012966B
:104110008D919C911397AD01009711F0DC01D3CFE5
:10412000FA01D383C28321913191E20FF31FCE179D
:10413000DF0769F488819981280F391F2E5F3F4F6F
:10414000FA01318320838A819B8193838283DF916B
:08415000CF910895F894FFCF10
:1041580054494D4500414C415200200026010000C1
:0441680001FF0A0049
:00000001FF
